{
    "_format": "hh-sol-artifact-1",
    "contractName": "LayerZeroNoahNFT",
    "sourceName": "contracts/LayerZeroNoahNFT.sol",
    "abi": [
        {
            "inputs": [
                {
                    "internalType": "string",
                    "name": "_baseTokenURI",
                    "type": "string"
                },
                {
                    "internalType": "address",
                    "name": "_layerZeroEndpoint",
                    "type": "address"
                },
                {
                    "internalType": "uint256",
                    "name": "_startToken",
                    "type": "uint256"
                },
                {
                    "internalType": "uint256",
                    "name": "_maxMint",
                    "type": "uint256"
                },
                {
                    "internalType": "uint256",
                    "name": "_startTimestamp",
                    "type": "uint256"
                }
            ],
            "stateMutability": "nonpayable",
            "type": "constructor"
        },
        {
            "anonymous": false,
            "inputs": [
                {
                    "indexed": true,
                    "internalType": "address",
                    "name": "owner",
                    "type": "address"
                },
                {
                    "indexed": true,
                    "internalType": "address",
                    "name": "approved",
                    "type": "address"
                },
                {
                    "indexed": true,
                    "internalType": "uint256",
                    "name": "tokenId",
                    "type": "uint256"
                }
            ],
            "name": "Approval",
            "type": "event"
        },
        {
            "anonymous": false,
            "inputs": [
                {
                    "indexed": true,
                    "internalType": "address",
                    "name": "owner",
                    "type": "address"
                },
                {
                    "indexed": true,
                    "internalType": "address",
                    "name": "operator",
                    "type": "address"
                },
                {
                    "indexed": false,
                    "internalType": "bool",
                    "name": "approved",
                    "type": "bool"
                }
            ],
            "name": "ApprovalForAll",
            "type": "event"
        },
        {
            "anonymous": false,
            "inputs": [
                {
                    "indexed": false,
                    "internalType": "uint16",
                    "name": "_srcChainId",
                    "type": "uint16"
                },
                {
                    "indexed": false,
                    "internalType": "bytes",
                    "name": "_srcAddress",
                    "type": "bytes"
                },
                {
                    "indexed": false,
                    "internalType": "uint64",
                    "name": "_nonce",
                    "type": "uint64"
                },
                {
                    "indexed": false,
                    "internalType": "bytes",
                    "name": "_payload",
                    "type": "bytes"
                }
            ],
            "name": "MessageFailed",
            "type": "event"
        },
        {
            "anonymous": false,
            "inputs": [
                {
                    "indexed": true,
                    "internalType": "address",
                    "name": "previousOwner",
                    "type": "address"
                },
                {
                    "indexed": true,
                    "internalType": "address",
                    "name": "newOwner",
                    "type": "address"
                }
            ],
            "name": "OwnershipTransferred",
            "type": "event"
        },
        {
            "anonymous": false,
            "inputs": [
                {
                    "indexed": true,
                    "internalType": "address",
                    "name": "from",
                    "type": "address"
                },
                {
                    "indexed": true,
                    "internalType": "address",
                    "name": "to",
                    "type": "address"
                },
                {
                    "indexed": true,
                    "internalType": "uint256",
                    "name": "tokenId",
                    "type": "uint256"
                }
            ],
            "name": "Transfer",
            "type": "event"
        },
        {
            "inputs": [
                {
                    "internalType": "address",
                    "name": "to",
                    "type": "address"
                },
                {
                    "internalType": "uint256",
                    "name": "tokenId",
                    "type": "uint256"
                }
            ],
            "name": "approve",
            "outputs": [],
            "stateMutability": "nonpayable",
            "type": "function"
        },
        {
            "inputs": [
                {
                    "internalType": "address",
                    "name": "owner",
                    "type": "address"
                }
            ],
            "name": "balanceOf",
            "outputs": [
                {
                    "internalType": "uint256",
                    "name": "",
                    "type": "uint256"
                }
            ],
            "stateMutability": "view",
            "type": "function"
        },
        {
            "inputs": [],
            "name": "baseTokenURI",
            "outputs": [
                {
                    "internalType": "string",
                    "name": "",
                    "type": "string"
                }
            ],
            "stateMutability": "view",
            "type": "function"
        },
        {
            "inputs": [
                {
                    "internalType": "uint16",
                    "name": "_chainId",
                    "type": "uint16"
                },
                {
                    "internalType": "uint256",
                    "name": "tokenId",
                    "type": "uint256"
                }
            ],
            "name": "crossChains",
            "outputs": [],
            "stateMutability": "payable",
            "type": "function"
        },
        {
            "inputs": [],
            "name": "endpoint",
            "outputs": [
                {
                    "internalType": "contract ILayerZeroEndpoint",
                    "name": "",
                    "type": "address"
                }
            ],
            "stateMutability": "view",
            "type": "function"
        },
        {
            "inputs": [
                {
                    "internalType": "uint16",
                    "name": "",
                    "type": "uint16"
                },
                {
                    "internalType": "bytes",
                    "name": "",
                    "type": "bytes"
                },
                {
                    "internalType": "uint256",
                    "name": "",
                    "type": "uint256"
                }
            ],
            "name": "failedMessages",
            "outputs": [
                {
                    "internalType": "uint256",
                    "name": "payloadLength",
                    "type": "uint256"
                },
                {
                    "internalType": "bytes32",
                    "name": "payloadHash",
                    "type": "bytes32"
                }
            ],
            "stateMutability": "view",
            "type": "function"
        },
        {
            "inputs": [
                {
                    "internalType": "uint16",
                    "name": "_srcChainId",
                    "type": "uint16"
                },
                {
                    "internalType": "bytes",
                    "name": "_srcAddress",
                    "type": "bytes"
                }
            ],
            "name": "forceResumeReceive",
            "outputs": [],
            "stateMutability": "nonpayable",
            "type": "function"
        },
        {
            "inputs": [
                {
                    "internalType": "uint256",
                    "name": "tokenId",
                    "type": "uint256"
                }
            ],
            "name": "getApproved",
            "outputs": [
                {
                    "internalType": "address",
                    "name": "",
                    "type": "address"
                }
            ],
            "stateMutability": "view",
            "type": "function"
        },
        {
            "inputs": [
                {
                    "internalType": "uint16",
                    "name": "_chainId",
                    "type": "uint16"
                },
                {
                    "internalType": "uint256",
                    "name": "tokenId",
                    "type": "uint256"
                }
            ],
            "name": "getEstimatedFees",
            "outputs": [
                {
                    "internalType": "uint256",
                    "name": "",
                    "type": "uint256"
                }
            ],
            "stateMutability": "view",
            "type": "function"
        },
        {
            "inputs": [
                {
                    "internalType": "address",
                    "name": "owner",
                    "type": "address"
                },
                {
                    "internalType": "address",
                    "name": "operator",
                    "type": "address"
                }
            ],
            "name": "isApprovedForAll",
            "outputs": [
                {
                    "internalType": "bool",
                    "name": "",
                    "type": "bool"
                }
            ],
            "stateMutability": "view",
            "type": "function"
        },
        {
            "inputs": [
                {
                    "internalType": "uint16",
                    "name": "_srcChainId",
                    "type": "uint16"
                },
                {
                    "internalType": "bytes",
                    "name": "_srcAddress",
                    "type": "bytes"
                },
                {
                    "internalType": "uint64",
                    "name": "_nonce",
                    "type": "uint64"
                },
                {
                    "internalType": "bytes",
                    "name": "_payload",
                    "type": "bytes"
                }
            ],
            "name": "lzReceive",
            "outputs": [],
            "stateMutability": "nonpayable",
            "type": "function"
        },
        {
            "inputs": [],
            "name": "maxMint",
            "outputs": [
                {
                    "internalType": "uint256",
                    "name": "",
                    "type": "uint256"
                }
            ],
            "stateMutability": "view",
            "type": "function"
        },
        {
            "inputs": [],
            "name": "maxPerTx",
            "outputs": [
                {
                    "internalType": "uint256",
                    "name": "",
                    "type": "uint256"
                }
            ],
            "stateMutability": "view",
            "type": "function"
        },
        {
            "inputs": [
                {
                    "internalType": "uint256",
                    "name": "quantity",
                    "type": "uint256"
                }
            ],
            "name": "mint",
            "outputs": [],
            "stateMutability": "nonpayable",
            "type": "function"
        },
        {
            "inputs": [],
            "name": "name",
            "outputs": [
                {
                    "internalType": "string",
                    "name": "",
                    "type": "string"
                }
            ],
            "stateMutability": "view",
            "type": "function"
        },
        {
            "inputs": [
                {
                    "internalType": "uint16",
                    "name": "_srcChainId",
                    "type": "uint16"
                },
                {
                    "internalType": "bytes",
                    "name": "_srcAddress",
                    "type": "bytes"
                },
                {
                    "internalType": "uint64",
                    "name": "_nonce",
                    "type": "uint64"
                },
                {
                    "internalType": "bytes",
                    "name": "_payload",
                    "type": "bytes"
                }
            ],
            "name": "onLzReceive",
            "outputs": [],
            "stateMutability": "nonpayable",
            "type": "function"
        },
        {
            "inputs": [],
            "name": "owner",
            "outputs": [
                {
                    "internalType": "address",
                    "name": "",
                    "type": "address"
                }
            ],
            "stateMutability": "view",
            "type": "function"
        },
        {
            "inputs": [
                {
                    "internalType": "uint256",
                    "name": "tokenId",
                    "type": "uint256"
                }
            ],
            "name": "ownerOf",
            "outputs": [
                {
                    "internalType": "address",
                    "name": "",
                    "type": "address"
                }
            ],
            "stateMutability": "view",
            "type": "function"
        },
        {
            "inputs": [],
            "name": "renounceOwnership",
            "outputs": [],
            "stateMutability": "nonpayable",
            "type": "function"
        },
        {
            "inputs": [],
            "name": "reserveNoahs",
            "outputs": [],
            "stateMutability": "nonpayable",
            "type": "function"
        },
        {
            "inputs": [
                {
                    "internalType": "uint16",
                    "name": "_srcChainId",
                    "type": "uint16"
                },
                {
                    "internalType": "bytes",
                    "name": "_srcAddress",
                    "type": "bytes"
                },
                {
                    "internalType": "uint64",
                    "name": "_nonce",
                    "type": "uint64"
                },
                {
                    "internalType": "bytes",
                    "name": "_payload",
                    "type": "bytes"
                }
            ],
            "name": "retryMessage",
            "outputs": [],
            "stateMutability": "payable",
            "type": "function"
        },
        {
            "inputs": [
                {
                    "internalType": "address",
                    "name": "from",
                    "type": "address"
                },
                {
                    "internalType": "address",
                    "name": "to",
                    "type": "address"
                },
                {
                    "internalType": "uint256",
                    "name": "tokenId",
                    "type": "uint256"
                }
            ],
            "name": "safeTransferFrom",
            "outputs": [],
            "stateMutability": "nonpayable",
            "type": "function"
        },
        {
            "inputs": [
                {
                    "internalType": "address",
                    "name": "from",
                    "type": "address"
                },
                {
                    "internalType": "address",
                    "name": "to",
                    "type": "address"
                },
                {
                    "internalType": "uint256",
                    "name": "tokenId",
                    "type": "uint256"
                },
                {
                    "internalType": "bytes",
                    "name": "_data",
                    "type": "bytes"
                }
            ],
            "name": "safeTransferFrom",
            "outputs": [],
            "stateMutability": "nonpayable",
            "type": "function"
        },
        {
            "inputs": [
                {
                    "internalType": "address",
                    "name": "operator",
                    "type": "address"
                },
                {
                    "internalType": "bool",
                    "name": "approved",
                    "type": "bool"
                }
            ],
            "name": "setApprovalForAll",
            "outputs": [],
            "stateMutability": "nonpayable",
            "type": "function"
        },
        {
            "inputs": [
                {
                    "internalType": "string",
                    "name": "_baseTokenURI",
                    "type": "string"
                }
            ],
            "name": "setBaseURI",
            "outputs": [],
            "stateMutability": "nonpayable",
            "type": "function"
        },
        {
            "inputs": [
                {
                    "internalType": "uint16",
                    "name": "_version",
                    "type": "uint16"
                },
                {
                    "internalType": "uint16",
                    "name": "_chainId",
                    "type": "uint16"
                },
                {
                    "internalType": "uint256",
                    "name": "_configType",
                    "type": "uint256"
                },
                {
                    "internalType": "bytes",
                    "name": "_config",
                    "type": "bytes"
                }
            ],
            "name": "setConfig",
            "outputs": [],
            "stateMutability": "nonpayable",
            "type": "function"
        },
        {
            "inputs": [
                {
                    "internalType": "uint16",
                    "name": "_version",
                    "type": "uint16"
                }
            ],
            "name": "setReceiveVersion",
            "outputs": [],
            "stateMutability": "nonpayable",
            "type": "function"
        },
        {
            "inputs": [
                {
                    "internalType": "uint16",
                    "name": "_version",
                    "type": "uint16"
                }
            ],
            "name": "setSendVersion",
            "outputs": [],
            "stateMutability": "nonpayable",
            "type": "function"
        },
        {
            "inputs": [
                {
                    "internalType": "uint16",
                    "name": "_chainId",
                    "type": "uint16"
                },
                {
                    "internalType": "bytes",
                    "name": "_trustedSource",
                    "type": "bytes"
                }
            ],
            "name": "setTrustedSource",
            "outputs": [],
            "stateMutability": "nonpayable",
            "type": "function"
        },
        {
            "inputs": [],
            "name": "startTimestamp",
            "outputs": [
                {
                    "internalType": "uint256",
                    "name": "",
                    "type": "uint256"
                }
            ],
            "stateMutability": "view",
            "type": "function"
        },
        {
            "inputs": [
                {
                    "internalType": "bytes4",
                    "name": "interfaceId",
                    "type": "bytes4"
                }
            ],
            "name": "supportsInterface",
            "outputs": [
                {
                    "internalType": "bool",
                    "name": "",
                    "type": "bool"
                }
            ],
            "stateMutability": "view",
            "type": "function"
        },
        {
            "inputs": [],
            "name": "symbol",
            "outputs": [
                {
                    "internalType": "string",
                    "name": "",
                    "type": "string"
                }
            ],
            "stateMutability": "view",
            "type": "function"
        },
        {
            "inputs": [
                {
                    "internalType": "uint256",
                    "name": "index",
                    "type": "uint256"
                }
            ],
            "name": "tokenByIndex",
            "outputs": [
                {
                    "internalType": "uint256",
                    "name": "",
                    "type": "uint256"
                }
            ],
            "stateMutability": "view",
            "type": "function"
        },
        {
            "inputs": [
                {
                    "internalType": "address",
                    "name": "owner",
                    "type": "address"
                },
                {
                    "internalType": "uint256",
                    "name": "index",
                    "type": "uint256"
                }
            ],
            "name": "tokenOfOwnerByIndex",
            "outputs": [
                {
                    "internalType": "uint256",
                    "name": "",
                    "type": "uint256"
                }
            ],
            "stateMutability": "view",
            "type": "function"
        },
        {
            "inputs": [
                {
                    "internalType": "uint256",
                    "name": "_tokenId",
                    "type": "uint256"
                }
            ],
            "name": "tokenURI",
            "outputs": [
                {
                    "internalType": "string",
                    "name": "",
                    "type": "string"
                }
            ],
            "stateMutability": "view",
            "type": "function"
        },
        {
            "inputs": [],
            "name": "totalSupply",
            "outputs": [
                {
                    "internalType": "uint256",
                    "name": "",
                    "type": "uint256"
                }
            ],
            "stateMutability": "view",
            "type": "function"
        },
        {
            "inputs": [
                {
                    "internalType": "address",
                    "name": "from",
                    "type": "address"
                },
                {
                    "internalType": "address",
                    "name": "to",
                    "type": "address"
                },
                {
                    "internalType": "uint256",
                    "name": "tokenId",
                    "type": "uint256"
                }
            ],
            "name": "transferFrom",
            "outputs": [],
            "stateMutability": "nonpayable",
            "type": "function"
        },
        {
            "inputs": [
                {
                    "internalType": "address",
                    "name": "newOwner",
                    "type": "address"
                }
            ],
            "name": "transferOwnership",
            "outputs": [],
            "stateMutability": "nonpayable",
            "type": "function"
        },
        {
            "inputs": [
                {
                    "internalType": "uint16",
                    "name": "",
                    "type": "uint16"
                }
            ],
            "name": "trustedSourceLookup",
            "outputs": [
                {
                    "internalType": "bytes",
                    "name": "",
                    "type": "bytes"
                }
            ],
            "stateMutability": "view",
            "type": "function"
        }
    ],
    "bytecode": "0x60e0604052600260a0908152503480156200001957600080fd5b506040516200669e3803806200669e83398181016040528101906200003f919062000603565b6040518060400160405280600f81526020017f4c61796572205a65726f204e6f616800000000000000000000000000000000008152506040518060400160405280600381526020017f4c5a4e00000000000000000000000000000000000000000000000000000000008152508160009080519060200190620000c392919062000316565b508060019080519060200190620000dc92919062000316565b505050620000ff620000f36200017360201b60201c565b6200017b60201b60201c565b62000110856200024160201b60201c565b83600b60006101000a81548173ffffffffffffffffffffffffffffffffffffffff021916908373ffffffffffffffffffffffffffffffffffffffff16021790555082600f8190555081608081815250508060c08181525050505050505062000792565b600033905090565b6000600a60009054906101000a900473ffffffffffffffffffffffffffffffffffffffff16905081600a60006101000a81548173ffffffffffffffffffffffffffffffffffffffff021916908373ffffffffffffffffffffffffffffffffffffffff1602179055508173ffffffffffffffffffffffffffffffffffffffff168173ffffffffffffffffffffffffffffffffffffffff167f8be0079c531659141344cd1fd0a4f28419497f9722a3daafe3b4186f6b6457e060405160405180910390a35050565b620002516200017360201b60201c565b73ffffffffffffffffffffffffffffffffffffffff1662000277620002ec60201b60201c565b73ffffffffffffffffffffffffffffffffffffffff1614620002d0576040517f08c379a0000000000000000000000000000000000000000000000000000000008152600401620002c7906200070b565b60405180910390fd5b80600e9080519060200190620002e892919062000316565b5050565b6000600a60009054906101000a900473ffffffffffffffffffffffffffffffffffffffff16905090565b82805462000324906200075c565b90600052602060002090601f01602090048101928262000348576000855562000394565b82601f106200036357805160ff191683800117855562000394565b8280016001018555821562000394579182015b828111156200039357825182559160200191906001019062000376565b5b509050620003a39190620003a7565b5090565b5b80821115620003c2576000816000905550600101620003a8565b5090565b6000604051905090565b600080fd5b600080fd5b600080fd5b600080fd5b6000601f19601f8301169050919050565b7f4e487b7100000000000000000000000000000000000000000000000000000000600052604160045260246000fd5b6200042f82620003e4565b810181811067ffffffffffffffff82111715620004515762000450620003f5565b5b80604052505050565b600062000466620003c6565b905062000474828262000424565b919050565b600067ffffffffffffffff821115620004975762000496620003f5565b5b620004a282620003e4565b9050602081019050919050565b60005b83811015620004cf578082015181840152602081019050620004b2565b83811115620004df576000848401525b50505050565b6000620004fc620004f68462000479565b6200045a565b9050828152602081018484840111156200051b576200051a620003df565b5b62000528848285620004af565b509392505050565b600082601f830112620005485762000547620003da565b5b81516200055a848260208601620004e5565b91505092915050565b600073ffffffffffffffffffffffffffffffffffffffff82169050919050565b6000620005908262000563565b9050919050565b620005a28162000583565b8114620005ae57600080fd5b50565b600081519050620005c28162000597565b92915050565b6000819050919050565b620005dd81620005c8565b8114620005e957600080fd5b50565b600081519050620005fd81620005d2565b92915050565b600080600080600060a08688031215620006225762000621620003d0565b5b600086015167ffffffffffffffff811115620006435762000642620003d5565b5b620006518882890162000530565b95505060206200066488828901620005b1565b94505060406200067788828901620005ec565b93505060606200068a88828901620005ec565b92505060806200069d88828901620005ec565b9150509295509295909350565b600082825260208201905092915050565b7f4f776e61626c653a2063616c6c6572206973206e6f7420746865206f776e6572600082015250565b6000620006f3602083620006aa565b91506200070082620006bb565b602082019050919050565b600060208201905081810360008301526200072681620006e4565b9050919050565b7f4e487b7100000000000000000000000000000000000000000000000000000000600052602260045260246000fd5b600060028204905060018216806200077557607f821691505b602082108114156200078c576200078b6200072d565b5b50919050565b60805160a05160c051615ec0620007de6000396000818161188a01526123990152600081816118ed0152818161191801526125490152600081816116b601526119830152615ec06000f3fe60806040526004361061022f5760003560e01c8063715018a61161012e578063c87b56dd116100ab578063da2ab1141161006f578063da2ab1141461084c578063e6fd48bc14610868578063e985e9c514610893578063f2fde38b146108d0578063f968adbe146108f95761022f565b8063c87b56dd14610776578063cbed8b9c146107b3578063d1deba1f146107dc578063d547cfb7146107f8578063d73f057e146108235761022f565b806395d89b41116100f257806395d89b4114610693578063a0712d68146106be578063a22cb465146106e7578063b88d4fde14610710578063c7afa661146107395761022f565b8063715018a6146105ab5780637501f741146105c257806381c986ee146105ed5780638da5cb5b1461062a5780638ee74912146106555761022f565b806323b872dd116101bc57806355f804b31161018057806355f804b3146104c65780635e280f11146104ef5780636352211e1461051a5780636d80d8be1461055757806370a082311461056e5761022f565b806323b872dd146103d15780632f745c59146103fa57806342842e0e1461043757806342d65a8d146104605780634f6ccce7146104895761022f565b8063081812fc11610203578063081812fc146102ee578063095ea7b31461032b57806310ddb1371461035457806318160ddd1461037d5780631c37a822146103a85761022f565b80621d35671461023457806301ffc9a71461025d57806306fdde031461029a57806307e0db17146102c5575b600080fd5b34801561024057600080fd5b5061025b60048036038101906102569190613c23565b610924565b005b34801561026957600080fd5b50610284600480360381019061027f9190613d1a565b610b66565b6040516102919190613d62565b60405180910390f35b3480156102a657600080fd5b506102af610be0565b6040516102bc9190613e05565b60405180910390f35b3480156102d157600080fd5b506102ec60048036038101906102e79190613e27565b610c72565b005b3480156102fa57600080fd5b5061031560048036038101906103109190613e8a565b610d7e565b6040516103229190613ef8565b60405180910390f35b34801561033757600080fd5b50610352600480360381019061034d9190613f3f565b610e03565b005b34801561036057600080fd5b5061037b60048036038101906103769190613e27565b610f1b565b005b34801561038957600080fd5b50610392611027565b60405161039f9190613f8e565b60405180910390f35b3480156103b457600080fd5b506103cf60048036038101906103ca9190613c23565b611034565b005b3480156103dd57600080fd5b506103f860048036038101906103f39190613fa9565b6110b4565b005b34801561040657600080fd5b50610421600480360381019061041c9190613f3f565b611114565b60405161042e9190613f8e565b60405180910390f35b34801561044357600080fd5b5061045e60048036038101906104599190613fa9565b6111b9565b005b34801561046c57600080fd5b506104876004803603810190610482919061405c565b6111d9565b005b34801561049557600080fd5b506104b060048036038101906104ab9190613e8a565b6112eb565b6040516104bd9190613f8e565b60405180910390f35b3480156104d257600080fd5b506104ed60048036038101906104e8919061415d565b61135c565b005b3480156104fb57600080fd5b506105046113f2565b6040516105119190614205565b60405180910390f35b34801561052657600080fd5b50610541600480360381019061053c9190613e8a565b611418565b60405161054e9190613ef8565b60405180910390f35b34801561056357600080fd5b5061056c6114ca565b005b34801561057a57600080fd5b5061059560048036038101906105909190614220565b61157e565b6040516105a29190613f8e565b60405180910390f35b3480156105b757600080fd5b506105c0611636565b005b3480156105ce57600080fd5b506105d76116b4565b6040516105e49190613f8e565b60405180910390f35b3480156105f957600080fd5b50610614600480360381019061060f9190613e27565b6116d8565b60405161062191906142a2565b60405180910390f35b34801561063657600080fd5b5061063f611778565b60405161064c9190613ef8565b60405180910390f35b34801561066157600080fd5b5061067c600480360381019061067791906142c4565b6117a2565b60405161068a92919061434c565b60405180910390f35b34801561069f57600080fd5b506106a86117f6565b6040516106b59190613e05565b60405180910390f35b3480156106ca57600080fd5b506106e560048036038101906106e09190613e8a565b611888565b005b3480156106f357600080fd5b5061070e600480360381019061070991906143a1565b611a25565b005b34801561071c57600080fd5b50610737600480360381019061073291906143e1565b611a3b565b005b34801561074557600080fd5b50610760600480360381019061075b9190614464565b611a9d565b60405161076d9190613f8e565b60405180910390f35b34801561078257600080fd5b5061079d60048036038101906107989190613e8a565b611bbe565b6040516107aa9190613e05565b60405180910390f35b3480156107bf57600080fd5b506107da60048036038101906107d591906144a4565b611c40565b005b6107f660048036038101906107f1919061452c565b611d58565b005b34801561080457600080fd5b5061080d611ef8565b60405161081a9190613e05565b60405180910390f35b34801561082f57600080fd5b5061084a6004803603810190610845919061405c565b611f86565b005b61086660048036038101906108619190614464565b61209c565b005b34801561087457600080fd5b5061087d612397565b60405161088a9190613f8e565b60405180910390f35b34801561089f57600080fd5b506108ba60048036038101906108b591906145d0565b6123bb565b6040516108c79190613d62565b60405180910390f35b3480156108dc57600080fd5b506108f760048036038101906108f29190614220565b61244f565b005b34801561090557600080fd5b5061090e612547565b60405161091b9190613f8e565b60405180910390f35b600b60009054906101000a900473ffffffffffffffffffffffffffffffffffffffff1673ffffffffffffffffffffffffffffffffffffffff163373ffffffffffffffffffffffffffffffffffffffff161461097e57600080fd5b600d60008561ffff1661ffff16815260200190815260200160002080546109a49061463f565b905083511480156109ea5750600d60008561ffff1661ffff1681526020019081526020016000206040516109d89190614710565b60405180910390208380519060200120145b610a29576040517f08c379a0000000000000000000000000000000000000000000000000000000008152600401610a2090614799565b60405180910390fd5b3073ffffffffffffffffffffffffffffffffffffffff16631c37a822858585856040518563ffffffff1660e01b8152600401610a6894939291906147d7565b600060405180830381600087803b158015610a8257600080fd5b505af1925050508015610a93575060015b610b5f576040518060400160405280825181526020018280519060200120815250600c60008661ffff1661ffff16815260200190815260200160002084604051610add919061485b565b908152602001604051809103902060008467ffffffffffffffff16815260200190815260200160002060008201518160000155602082015181600101559050507fe6f254030bcb01ffd20558175c13fcaed6d1520be7becee4c961b65f79243b0d84848484604051610b5294939291906147d7565b60405180910390a1610b60565b5b50505050565b60007f780e9d63000000000000000000000000000000000000000000000000000000007bffffffffffffffffffffffffffffffffffffffffffffffffffffffff1916827bffffffffffffffffffffffffffffffffffffffffffffffffffffffff19161480610bd95750610bd88261256b565b5b9050919050565b606060008054610bef9061463f565b80601f0160208091040260200160405190810160405280929190818152602001828054610c1b9061463f565b8015610c685780601f10610c3d57610100808354040283529160200191610c68565b820191906000526020600020905b815481529060010190602001808311610c4b57829003601f168201915b5050505050905090565b610c7a61264d565b73ffffffffffffffffffffffffffffffffffffffff16610c98611778565b73ffffffffffffffffffffffffffffffffffffffff1614610cee576040517f08c379a0000000000000000000000000000000000000000000000000000000008152600401610ce5906148be565b60405180910390fd5b600b60009054906101000a900473ffffffffffffffffffffffffffffffffffffffff1673ffffffffffffffffffffffffffffffffffffffff166307e0db17826040518263ffffffff1660e01b8152600401610d4991906148de565b600060405180830381600087803b158015610d6357600080fd5b505af1158015610d77573d6000803e3d6000fd5b5050505050565b6000610d8982612655565b610dc8576040517f08c379a0000000000000000000000000000000000000000000000000000000008152600401610dbf9061496b565b60405180910390fd5b6004600083815260200190815260200160002060009054906101000a900473ffffffffffffffffffffffffffffffffffffffff169050919050565b6000610e0e82611418565b90508073ffffffffffffffffffffffffffffffffffffffff168373ffffffffffffffffffffffffffffffffffffffff161415610e7f576040517f08c379a0000000000000000000000000000000000000000000000000000000008152600401610e76906149fd565b60405180910390fd5b8073ffffffffffffffffffffffffffffffffffffffff16610e9e61264d565b73ffffffffffffffffffffffffffffffffffffffff161480610ecd5750610ecc81610ec761264d565b6123bb565b5b610f0c576040517f08c379a0000000000000000000000000000000000000000000000000000000008152600401610f0390614a8f565b60405180910390fd5b610f1683836126c1565b505050565b610f2361264d565b73ffffffffffffffffffffffffffffffffffffffff16610f41611778565b73ffffffffffffffffffffffffffffffffffffffff1614610f97576040517f08c379a0000000000000000000000000000000000000000000000000000000008152600401610f8e906148be565b60405180910390fd5b600b60009054906101000a900473ffffffffffffffffffffffffffffffffffffffff1673ffffffffffffffffffffffffffffffffffffffff166310ddb137826040518263ffffffff1660e01b8152600401610ff291906148de565b600060405180830381600087803b15801561100c57600080fd5b505af1158015611020573d6000803e3d6000fd5b5050505050565b6000600880549050905090565b3073ffffffffffffffffffffffffffffffffffffffff163373ffffffffffffffffffffffffffffffffffffffff16146110a2576040517f08c379a000000000000000000000000000000000000000000000000000000000815260040161109990614b21565b60405180910390fd5b6110ae8484848461277a565b50505050565b6110c56110bf61264d565b826127a7565b611104576040517f08c379a00000000000000000000000000000000000000000000000000000000081526004016110fb90614bb3565b60405180910390fd5b61110f838383612885565b505050565b600061111f8361157e565b8210611160576040517f08c379a000000000000000000000000000000000000000000000000000000000815260040161115790614c45565b60405180910390fd5b600660008473ffffffffffffffffffffffffffffffffffffffff1673ffffffffffffffffffffffffffffffffffffffff168152602001908152602001600020600083815260200190815260200160002054905092915050565b6111d483838360405180602001604052806000815250611a3b565b505050565b6111e161264d565b73ffffffffffffffffffffffffffffffffffffffff166111ff611778565b73ffffffffffffffffffffffffffffffffffffffff1614611255576040517f08c379a000000000000000000000000000000000000000000000000000000000815260040161124c906148be565b60405180910390fd5b600b60009054906101000a900473ffffffffffffffffffffffffffffffffffffffff1673ffffffffffffffffffffffffffffffffffffffff166342d65a8d8484846040518463ffffffff1660e01b81526004016112b493929190614c92565b600060405180830381600087803b1580156112ce57600080fd5b505af11580156112e2573d6000803e3d6000fd5b50505050505050565b60006112f5611027565b8210611336576040517f08c379a000000000000000000000000000000000000000000000000000000000815260040161132d90614d36565b60405180910390fd5b6008828154811061134a57611349614d56565b5b90600052602060002001549050919050565b61136461264d565b73ffffffffffffffffffffffffffffffffffffffff16611382611778565b73ffffffffffffffffffffffffffffffffffffffff16146113d8576040517f08c379a00000000000000000000000000000000000000000000000000000000081526004016113cf906148be565b60405180910390fd5b80600e90805190602001906113ee929190613926565b5050565b600b60009054906101000a900473ffffffffffffffffffffffffffffffffffffffff1681565b6000806002600084815260200190815260200160002060009054906101000a900473ffffffffffffffffffffffffffffffffffffffff169050600073ffffffffffffffffffffffffffffffffffffffff168173ffffffffffffffffffffffffffffffffffffffff1614156114c1576040517f08c379a00000000000000000000000000000000000000000000000000000000081526004016114b890614df7565b60405180910390fd5b80915050919050565b6114d261264d565b73ffffffffffffffffffffffffffffffffffffffff166114f0611778565b73ffffffffffffffffffffffffffffffffffffffff1614611546576040517f08c379a000000000000000000000000000000000000000000000000000000000815260040161153d906148be565b60405180910390fd5b60005b601481101561157b57611568336001836115639190614e46565b612aec565b808061157390614e9c565b915050611549565b50565b60008073ffffffffffffffffffffffffffffffffffffffff168273ffffffffffffffffffffffffffffffffffffffff1614156115ef576040517f08c379a00000000000000000000000000000000000000000000000000000000081526004016115e690614f57565b60405180910390fd5b600360008373ffffffffffffffffffffffffffffffffffffffff1673ffffffffffffffffffffffffffffffffffffffff168152602001908152602001600020549050919050565b61163e61264d565b73ffffffffffffffffffffffffffffffffffffffff1661165c611778565b73ffffffffffffffffffffffffffffffffffffffff16146116b2576040517f08c379a00000000000000000000000000000000000000000000000000000000081526004016116a9906148be565b60405180910390fd5b565b7f000000000000000000000000000000000000000000000000000000000000000081565b600d60205280600052604060002060009150905080546116f79061463f565b80601f01602080910402602001604051908101604052809291908181526020018280546117239061463f565b80156117705780601f1061174557610100808354040283529160200191611770565b820191906000526020600020905b81548152906001019060200180831161175357829003601f168201915b505050505081565b6000600a60009054906101000a900473ffffffffffffffffffffffffffffffffffffffff16905090565b600c6020528260005260406000208280516020810182018051848252602083016020850120818352809550505050505060205280600052604060002060009250925050508060000154908060010154905082565b6060600180546118059061463f565b80601f01602080910402602001604051908101604052809291908181526020018280546118319061463f565b801561187e5780601f106118535761010080835404028352916020019161187e565b820191906000526020600020905b81548152906001019060200180831161186157829003601f168201915b5050505050905090565b7f00000000000000000000000000000000000000000000000000000000000000004210156118eb576040517f08c379a00000000000000000000000000000000000000000000000000000000081526004016118e290614fc3565b60405180910390fd5b7f0000000000000000000000000000000000000000000000000000000000000000811115801561194257507f00000000000000000000000000000000000000000000000000000000000000006119403361157e565b105b611981576040517f08c379a00000000000000000000000000000000000000000000000000000000081526004016119789061502f565b60405180910390fd5b7f000000000000000000000000000000000000000000000000000000000000000081600f546119b09190614e46565b11156119f1576040517f08c379a00000000000000000000000000000000000000000000000000000000081526004016119e89061509b565b60405180910390fd5b60005b81811015611a2157611a1433600f60008154600101919050819055612aec565b80806001019150506119f4565b5050565b611a37611a3061264d565b8383612b0a565b5050565b611a4c611a4661264d565b836127a7565b611a8b576040517f08c379a0000000000000000000000000000000000000000000000000000000008152600401611a8290614bb3565b60405180910390fd5b611a9784848484612c77565b50505050565b6000803383604051602001611ab39291906150bb565b6040516020818303038152906040529050600060019050600062055730905060008282604051602001611ae792919061513b565b60405160208183030381529060405290506000600b60009054906101000a900473ffffffffffffffffffffffffffffffffffffffff1673ffffffffffffffffffffffffffffffffffffffff166340a7bb108930886000876040518663ffffffff1660e01b8152600401611b5e959493929190615167565b604080518083038186803b158015611b7557600080fd5b505afa158015611b89573d6000803e3d6000fd5b505050506040513d601f19601f82011682018060405250810190611bad91906151dd565b509050809550505050505092915050565b6060611bc982612655565b611c08576040517f08c379a0000000000000000000000000000000000000000000000000000000008152600401611bff9061528f565b60405180910390fd5b611c10612cd3565b611c1983612d65565b604051602001611c2a929190615337565b6040516020818303038152906040529050919050565b611c4861264d565b73ffffffffffffffffffffffffffffffffffffffff16611c66611778565b73ffffffffffffffffffffffffffffffffffffffff1614611cbc576040517f08c379a0000000000000000000000000000000000000000000000000000000008152600401611cb3906148be565b60405180910390fd5b600b60009054906101000a900473ffffffffffffffffffffffffffffffffffffffff1673ffffffffffffffffffffffffffffffffffffffff1663cbed8b9c86868686866040518663ffffffff1660e01b8152600401611d1f959493929190615366565b600060405180830381600087803b158015611d3957600080fd5b505af1158015611d4d573d6000803e3d6000fd5b505050505050505050565b6000600c60008761ffff1661ffff16815260200190815260200160002085604051611d83919061485b565b908152602001604051809103902060008567ffffffffffffffff16815260200190815260200160002090506000801b81600101541415611df8576040517f08c379a0000000000000000000000000000000000000000000000000000000008152600401611def90615426565b60405180910390fd5b806000015483839050148015611e28575080600101548383604051611e1e92919061546b565b6040518091039020145b611e67576040517f08c379a0000000000000000000000000000000000000000000000000000000008152600401611e5e906154d0565b60405180910390fd5b600081600001819055506000801b81600101819055503073ffffffffffffffffffffffffffffffffffffffff16631c37a82287878787876040518663ffffffff1660e01b8152600401611ebe9594939291906154f0565b600060405180830381600087803b158015611ed857600080fd5b505af1158015611eec573d6000803e3d6000fd5b50505050505050505050565b600e8054611f059061463f565b80601f0160208091040260200160405190810160405280929190818152602001828054611f319061463f565b8015611f7e5780601f10611f5357610100808354040283529160200191611f7e565b820191906000526020600020905b815481529060010190602001808311611f6157829003601f168201915b505050505081565b611f8e61264d565b73ffffffffffffffffffffffffffffffffffffffff16611fac611778565b73ffffffffffffffffffffffffffffffffffffffff1614612002576040517f08c379a0000000000000000000000000000000000000000000000000000000008152600401611ff9906148be565b60405180910390fd5b6000600d60008561ffff1661ffff168152602001908152602001600020805461202a9061463f565b90501461206c576040517f08c379a0000000000000000000000000000000000000000000000000000000008152600401612063906155b7565b60405180910390fd5b8181600d60008661ffff1661ffff16815260200190815260200160002091906120969291906139ac565b50505050565b6120a581611418565b73ffffffffffffffffffffffffffffffffffffffff163373ffffffffffffffffffffffffffffffffffffffff1614612112576040517f08c379a000000000000000000000000000000000000000000000000000000000815260040161210990615623565b60405180910390fd5b6000600d60008461ffff1661ffff168152602001908152602001600020805461213a9061463f565b9050141561217d576040517f08c379a0000000000000000000000000000000000000000000000000000000008152600401612174906156b5565b60405180910390fd5b61218681612ec6565b6000338260405160200161219b9291906150bb565b60405160208183030381529060405290506000600190506000620557309050600082826040516020016121cf92919061513b565b60405160208183030381529060405290506000600b60009054906101000a900473ffffffffffffffffffffffffffffffffffffffff1673ffffffffffffffffffffffffffffffffffffffff166340a7bb108830886000876040518663ffffffff1660e01b8152600401612246959493929190615167565b604080518083038186803b15801561225d57600080fd5b505afa158015612271573d6000803e3d6000fd5b505050506040513d601f19601f8201168201806040525081019061229591906151dd565b509050803410156122db576040517f08c379a00000000000000000000000000000000000000000000000000000000081526004016122d290615747565b60405180910390fd5b600b60009054906101000a900473ffffffffffffffffffffffffffffffffffffffff1673ffffffffffffffffffffffffffffffffffffffff1663c58031003489600d60008c61ffff1661ffff16815260200190815260200160002089336000896040518863ffffffff1660e01b815260040161235c96959493929190615808565b6000604051808303818588803b15801561237557600080fd5b505af1158015612389573d6000803e3d6000fd5b505050505050505050505050565b7f000000000000000000000000000000000000000000000000000000000000000081565b6000600560008473ffffffffffffffffffffffffffffffffffffffff1673ffffffffffffffffffffffffffffffffffffffff16815260200190815260200160002060008373ffffffffffffffffffffffffffffffffffffffff1673ffffffffffffffffffffffffffffffffffffffff16815260200190815260200160002060009054906101000a900460ff16905092915050565b61245761264d565b73ffffffffffffffffffffffffffffffffffffffff16612475611778565b73ffffffffffffffffffffffffffffffffffffffff16146124cb576040517f08c379a00000000000000000000000000000000000000000000000000000000081526004016124c2906148be565b60405180910390fd5b600073ffffffffffffffffffffffffffffffffffffffff168173ffffffffffffffffffffffffffffffffffffffff16141561253b576040517f08c379a0000000000000000000000000000000000000000000000000000000008152600401612532906158f0565b60405180910390fd5b61254481612fe3565b50565b7f000000000000000000000000000000000000000000000000000000000000000081565b60007f80ac58cd000000000000000000000000000000000000000000000000000000007bffffffffffffffffffffffffffffffffffffffffffffffffffffffff1916827bffffffffffffffffffffffffffffffffffffffffffffffffffffffff1916148061263657507f5b5e139f000000000000000000000000000000000000000000000000000000007bffffffffffffffffffffffffffffffffffffffffffffffffffffffff1916827bffffffffffffffffffffffffffffffffffffffffffffffffffffffff1916145b806126465750612645826130a9565b5b9050919050565b600033905090565b60008073ffffffffffffffffffffffffffffffffffffffff166002600084815260200190815260200160002060009054906101000a900473ffffffffffffffffffffffffffffffffffffffff1673ffffffffffffffffffffffffffffffffffffffff1614159050919050565b816004600083815260200190815260200160002060006101000a81548173ffffffffffffffffffffffffffffffffffffffff021916908373ffffffffffffffffffffffffffffffffffffffff160217905550808273ffffffffffffffffffffffffffffffffffffffff1661273483611418565b73ffffffffffffffffffffffffffffffffffffffff167f8c5be1e5ebec7d5bd14f71427d1e84f3dd0314c0f7b2291e5b200ac8c7c3b92560405160405180910390a45050565b60008082806020019051810190612791919061593c565b9150915061279f8282612aec565b505050505050565b60006127b282612655565b6127f1576040517f08c379a00000000000000000000000000000000000000000000000000000000081526004016127e8906159ee565b60405180910390fd5b60006127fc83611418565b90508073ffffffffffffffffffffffffffffffffffffffff168473ffffffffffffffffffffffffffffffffffffffff16148061286b57508373ffffffffffffffffffffffffffffffffffffffff1661285384610d7e565b73ffffffffffffffffffffffffffffffffffffffff16145b8061287c575061287b81856123bb565b5b91505092915050565b8273ffffffffffffffffffffffffffffffffffffffff166128a582611418565b73ffffffffffffffffffffffffffffffffffffffff16146128fb576040517f08c379a00000000000000000000000000000000000000000000000000000000081526004016128f290615a80565b60405180910390fd5b600073ffffffffffffffffffffffffffffffffffffffff168273ffffffffffffffffffffffffffffffffffffffff16141561296b576040517f08c379a000000000000000000000000000000000000000000000000000000000815260040161296290615b12565b60405180910390fd5b612976838383613113565b6129816000826126c1565b6001600360008573ffffffffffffffffffffffffffffffffffffffff1673ffffffffffffffffffffffffffffffffffffffff16815260200190815260200160002060008282546129d19190615b32565b925050819055506001600360008473ffffffffffffffffffffffffffffffffffffffff1673ffffffffffffffffffffffffffffffffffffffff1681526020019081526020016000206000828254612a289190614e46565b92505081905550816002600083815260200190815260200160002060006101000a81548173ffffffffffffffffffffffffffffffffffffffff021916908373ffffffffffffffffffffffffffffffffffffffff160217905550808273ffffffffffffffffffffffffffffffffffffffff168473ffffffffffffffffffffffffffffffffffffffff167fddf252ad1be2c89b69c2b068fc378daa952ba7f163c4a11628f55a4df523b3ef60405160405180910390a4612ae7838383613227565b505050565b612b0682826040518060200160405280600081525061322c565b5050565b8173ffffffffffffffffffffffffffffffffffffffff168373ffffffffffffffffffffffffffffffffffffffff161415612b79576040517f08c379a0000000000000000000000000000000000000000000000000000000008152600401612b7090615bb2565b60405180910390fd5b80600560008573ffffffffffffffffffffffffffffffffffffffff1673ffffffffffffffffffffffffffffffffffffffff16815260200190815260200160002060008473ffffffffffffffffffffffffffffffffffffffff1673ffffffffffffffffffffffffffffffffffffffff16815260200190815260200160002060006101000a81548160ff0219169083151502179055508173ffffffffffffffffffffffffffffffffffffffff168373ffffffffffffffffffffffffffffffffffffffff167f17307eab39ab6107e8899845ad3d59bd9653f200f220920489ca2b5937696c3183604051612c6a9190613d62565b60405180910390a3505050565b612c82848484612885565b612c8e84848484613287565b612ccd576040517f08c379a0000000000000000000000000000000000000000000000000000000008152600401612cc490615c44565b60405180910390fd5b50505050565b6060600e8054612ce29061463f565b80601f0160208091040260200160405190810160405280929190818152602001828054612d0e9061463f565b8015612d5b5780601f10612d3057610100808354040283529160200191612d5b565b820191906000526020600020905b815481529060010190602001808311612d3e57829003601f168201915b5050505050905090565b60606000821415612dad576040518060400160405280600181526020017f30000000000000000000000000000000000000000000000000000000000000008152509050612ec1565b600082905060005b60008214612ddf578080612dc890614e9c565b915050600a82612dd89190615c93565b9150612db5565b60008167ffffffffffffffff811115612dfb57612dfa613ab8565b5b6040519080825280601f01601f191660200182016040528015612e2d5781602001600182028036833780820191505090505b5090505b60008514612eba57600182612e469190615b32565b9150600a85612e559190615cc4565b6030612e619190614e46565b60f81b818381518110612e7757612e76614d56565b5b60200101907effffffffffffffffffffffffffffffffffffffffffffffffffffffffffffff1916908160001a905350600a85612eb39190615c93565b9450612e31565b8093505050505b919050565b6000612ed182611418565b9050612edf81600084613113565b612eea6000836126c1565b6001600360008373ffffffffffffffffffffffffffffffffffffffff1673ffffffffffffffffffffffffffffffffffffffff1681526020019081526020016000206000828254612f3a9190615b32565b925050819055506002600083815260200190815260200160002060006101000a81549073ffffffffffffffffffffffffffffffffffffffff021916905581600073ffffffffffffffffffffffffffffffffffffffff168273ffffffffffffffffffffffffffffffffffffffff167fddf252ad1be2c89b69c2b068fc378daa952ba7f163c4a11628f55a4df523b3ef60405160405180910390a4612fdf81600084613227565b5050565b6000600a60009054906101000a900473ffffffffffffffffffffffffffffffffffffffff16905081600a60006101000a81548173ffffffffffffffffffffffffffffffffffffffff021916908373ffffffffffffffffffffffffffffffffffffffff1602179055508173ffffffffffffffffffffffffffffffffffffffff168173ffffffffffffffffffffffffffffffffffffffff167f8be0079c531659141344cd1fd0a4f28419497f9722a3daafe3b4186f6b6457e060405160405180910390a35050565b60007f01ffc9a7000000000000000000000000000000000000000000000000000000007bffffffffffffffffffffffffffffffffffffffffffffffffffffffff1916827bffffffffffffffffffffffffffffffffffffffffffffffffffffffff1916149050919050565b61311e83838361341e565b600073ffffffffffffffffffffffffffffffffffffffff168373ffffffffffffffffffffffffffffffffffffffff1614156131615761315c81613423565b6131a0565b8173ffffffffffffffffffffffffffffffffffffffff168373ffffffffffffffffffffffffffffffffffffffff161461319f5761319e838261346c565b5b5b600073ffffffffffffffffffffffffffffffffffffffff168273ffffffffffffffffffffffffffffffffffffffff1614156131e3576131de816135d9565b613222565b8273ffffffffffffffffffffffffffffffffffffffff168273ffffffffffffffffffffffffffffffffffffffff16146132215761322082826136aa565b5b5b505050565b505050565b6132368383613729565b6132436000848484613287565b613282576040517f08c379a000000000000000000000000000000000000000000000000000000000815260040161327990615c44565b60405180910390fd5b505050565b60006132a88473ffffffffffffffffffffffffffffffffffffffff16613903565b15613411578373ffffffffffffffffffffffffffffffffffffffff1663150b7a026132d161264d565b8786866040518563ffffffff1660e01b81526004016132f39493929190615cf5565b602060405180830381600087803b15801561330d57600080fd5b505af192505050801561333e57506040513d601f19601f8201168201806040525081019061333b9190615d56565b60015b6133c1573d806000811461336e576040519150601f19603f3d011682016040523d82523d6000602084013e613373565b606091505b506000815114156133b9576040517f08c379a00000000000000000000000000000000000000000000000000000000081526004016133b090615c44565b60405180910390fd5b805181602001fd5b63150b7a0260e01b7bffffffffffffffffffffffffffffffffffffffffffffffffffffffff1916817bffffffffffffffffffffffffffffffffffffffffffffffffffffffff191614915050613416565b600190505b949350505050565b505050565b6008805490506009600083815260200190815260200160002081905550600881908060018154018082558091505060019003906000526020600020016000909190919091505550565b600060016134798461157e565b6134839190615b32565b9050600060076000848152602001908152602001600020549050818114613568576000600660008673ffffffffffffffffffffffffffffffffffffffff1673ffffffffffffffffffffffffffffffffffffffff168152602001908152602001600020600084815260200190815260200160002054905080600660008773ffffffffffffffffffffffffffffffffffffffff1673ffffffffffffffffffffffffffffffffffffffff168152602001908152602001600020600084815260200190815260200160002081905550816007600083815260200190815260200160002081905550505b6007600084815260200190815260200160002060009055600660008573ffffffffffffffffffffffffffffffffffffffff1673ffffffffffffffffffffffffffffffffffffffff16815260200190815260200160002060008381526020019081526020016000206000905550505050565b600060016008805490506135ed9190615b32565b905060006009600084815260200190815260200160002054905060006008838154811061361d5761361c614d56565b5b90600052602060002001549050806008838154811061363f5761363e614d56565b5b90600052602060002001819055508160096000838152602001908152602001600020819055506009600085815260200190815260200160002060009055600880548061368e5761368d615d83565b5b6001900381819060005260206000200160009055905550505050565b60006136b58361157e565b905081600660008573ffffffffffffffffffffffffffffffffffffffff1673ffffffffffffffffffffffffffffffffffffffff168152602001908152602001600020600083815260200190815260200160002081905550806007600084815260200190815260200160002081905550505050565b600073ffffffffffffffffffffffffffffffffffffffff168273ffffffffffffffffffffffffffffffffffffffff161415613799576040517f08c379a000000000000000000000000000000000000000000000000000000000815260040161379090615dfe565b60405180910390fd5b6137a281612655565b156137e2576040517f08c379a00000000000000000000000000000000000000000000000000000000081526004016137d990615e6a565b60405180910390fd5b6137ee60008383613113565b6001600360008473ffffffffffffffffffffffffffffffffffffffff1673ffffffffffffffffffffffffffffffffffffffff168152602001908152602001600020600082825461383e9190614e46565b92505081905550816002600083815260200190815260200160002060006101000a81548173ffffffffffffffffffffffffffffffffffffffff021916908373ffffffffffffffffffffffffffffffffffffffff160217905550808273ffffffffffffffffffffffffffffffffffffffff16600073ffffffffffffffffffffffffffffffffffffffff167fddf252ad1be2c89b69c2b068fc378daa952ba7f163c4a11628f55a4df523b3ef60405160405180910390a46138ff60008383613227565b5050565b6000808273ffffffffffffffffffffffffffffffffffffffff163b119050919050565b8280546139329061463f565b90600052602060002090601f016020900481019282613954576000855561399b565b82601f1061396d57805160ff191683800117855561399b565b8280016001018555821561399b579182015b8281111561399a57825182559160200191906001019061397f565b5b5090506139a89190613a32565b5090565b8280546139b89061463f565b90600052602060002090601f0160209004810192826139da5760008555613a21565b82601f106139f357803560ff1916838001178555613a21565b82800160010185558215613a21579182015b82811115613a20578235825591602001919060010190613a05565b5b509050613a2e9190613a32565b5090565b5b80821115613a4b576000816000905550600101613a33565b5090565b6000604051905090565b600080fd5b600080fd5b600061ffff82169050919050565b613a7a81613a63565b8114613a8557600080fd5b50565b600081359050613a9781613a71565b92915050565b600080fd5b600080fd5b6000601f19601f8301169050919050565b7f4e487b7100000000000000000000000000000000000000000000000000000000600052604160045260246000fd5b613af082613aa7565b810181811067ffffffffffffffff82111715613b0f57613b0e613ab8565b5b80604052505050565b6000613b22613a4f565b9050613b2e8282613ae7565b919050565b600067ffffffffffffffff821115613b4e57613b4d613ab8565b5b613b5782613aa7565b9050602081019050919050565b82818337600083830152505050565b6000613b86613b8184613b33565b613b18565b905082815260208101848484011115613ba257613ba1613aa2565b5b613bad848285613b64565b509392505050565b600082601f830112613bca57613bc9613a9d565b5b8135613bda848260208601613b73565b91505092915050565b600067ffffffffffffffff82169050919050565b613c0081613be3565b8114613c0b57600080fd5b50565b600081359050613c1d81613bf7565b92915050565b60008060008060808587031215613c3d57613c3c613a59565b5b6000613c4b87828801613a88565b945050602085013567ffffffffffffffff811115613c6c57613c6b613a5e565b5b613c7887828801613bb5565b9350506040613c8987828801613c0e565b925050606085013567ffffffffffffffff811115613caa57613ca9613a5e565b5b613cb687828801613bb5565b91505092959194509250565b60007fffffffff0000000000000000000000000000000000000000000000000000000082169050919050565b613cf781613cc2565b8114613d0257600080fd5b50565b600081359050613d1481613cee565b92915050565b600060208284031215613d3057613d2f613a59565b5b6000613d3e84828501613d05565b91505092915050565b60008115159050919050565b613d5c81613d47565b82525050565b6000602082019050613d776000830184613d53565b92915050565b600081519050919050565b600082825260208201905092915050565b60005b83811015613db7578082015181840152602081019050613d9c565b83811115613dc6576000848401525b50505050565b6000613dd782613d7d565b613de18185613d88565b9350613df1818560208601613d99565b613dfa81613aa7565b840191505092915050565b60006020820190508181036000830152613e1f8184613dcc565b905092915050565b600060208284031215613e3d57613e3c613a59565b5b6000613e4b84828501613a88565b91505092915050565b6000819050919050565b613e6781613e54565b8114613e7257600080fd5b50565b600081359050613e8481613e5e565b92915050565b600060208284031215613ea057613e9f613a59565b5b6000613eae84828501613e75565b91505092915050565b600073ffffffffffffffffffffffffffffffffffffffff82169050919050565b6000613ee282613eb7565b9050919050565b613ef281613ed7565b82525050565b6000602082019050613f0d6000830184613ee9565b92915050565b613f1c81613ed7565b8114613f2757600080fd5b50565b600081359050613f3981613f13565b92915050565b60008060408385031215613f5657613f55613a59565b5b6000613f6485828601613f2a565b9250506020613f7585828601613e75565b9150509250929050565b613f8881613e54565b82525050565b6000602082019050613fa36000830184613f7f565b92915050565b600080600060608486031215613fc257613fc1613a59565b5b6000613fd086828701613f2a565b9350506020613fe186828701613f2a565b9250506040613ff286828701613e75565b9150509250925092565b600080fd5b600080fd5b60008083601f84011261401c5761401b613a9d565b5b8235905067ffffffffffffffff81111561403957614038613ffc565b5b60208301915083600182028301111561405557614054614001565b5b9250929050565b60008060006040848603121561407557614074613a59565b5b600061408386828701613a88565b935050602084013567ffffffffffffffff8111156140a4576140a3613a5e565b5b6140b086828701614006565b92509250509250925092565b600067ffffffffffffffff8211156140d7576140d6613ab8565b5b6140e082613aa7565b9050602081019050919050565b60006141006140fb846140bc565b613b18565b90508281526020810184848401111561411c5761411b613aa2565b5b614127848285613b64565b509392505050565b600082601f83011261414457614143613a9d565b5b81356141548482602086016140ed565b91505092915050565b60006020828403121561417357614172613a59565b5b600082013567ffffffffffffffff81111561419157614190613a5e565b5b61419d8482850161412f565b91505092915050565b6000819050919050565b60006141cb6141c66141c184613eb7565b6141a6565b613eb7565b9050919050565b60006141dd826141b0565b9050919050565b60006141ef826141d2565b9050919050565b6141ff816141e4565b82525050565b600060208201905061421a60008301846141f6565b92915050565b60006020828403121561423657614235613a59565b5b600061424484828501613f2a565b91505092915050565b600081519050919050565b600082825260208201905092915050565b60006142748261424d565b61427e8185614258565b935061428e818560208601613d99565b61429781613aa7565b840191505092915050565b600060208201905081810360008301526142bc8184614269565b905092915050565b6000806000606084860312156142dd576142dc613a59565b5b60006142eb86828701613a88565b935050602084013567ffffffffffffffff81111561430c5761430b613a5e565b5b61431886828701613bb5565b925050604061432986828701613e75565b9150509250925092565b6000819050919050565b61434681614333565b82525050565b60006040820190506143616000830185613f7f565b61436e602083018461433d565b9392505050565b61437e81613d47565b811461438957600080fd5b50565b60008135905061439b81614375565b92915050565b600080604083850312156143b8576143b7613a59565b5b60006143c685828601613f2a565b92505060206143d78582860161438c565b9150509250929050565b600080600080608085870312156143fb576143fa613a59565b5b600061440987828801613f2a565b945050602061441a87828801613f2a565b935050604061442b87828801613e75565b925050606085013567ffffffffffffffff81111561444c5761444b613a5e565b5b61445887828801613bb5565b91505092959194509250565b6000806040838503121561447b5761447a613a59565b5b600061448985828601613a88565b925050602061449a85828601613e75565b9150509250929050565b6000806000806000608086880312156144c0576144bf613a59565b5b60006144ce88828901613a88565b95505060206144df88828901613a88565b94505060406144f088828901613e75565b935050606086013567ffffffffffffffff81111561451157614510613a5e565b5b61451d88828901614006565b92509250509295509295909350565b60008060008060006080868803121561454857614547613a59565b5b600061455688828901613a88565b955050602086013567ffffffffffffffff81111561457757614576613a5e565b5b61458388828901613bb5565b945050604061459488828901613c0e565b935050606086013567ffffffffffffffff8111156145b5576145b4613a5e565b5b6145c188828901614006565b92509250509295509295909350565b600080604083850312156145e7576145e6613a59565b5b60006145f585828601613f2a565b925050602061460685828601613f2a565b9150509250929050565b7f4e487b7100000000000000000000000000000000000000000000000000000000600052602260045260246000fd5b6000600282049050600182168061465757607f821691505b6020821081141561466b5761466a614610565b5b50919050565b600081905092915050565b60008190508160005260206000209050919050565b6000815461469e8161463f565b6146a88186614671565b945060018216600081146146c357600181146146d457614707565b60ff19831686528186019350614707565b6146dd8561467c565b60005b838110156146ff578154818901526001820191506020810190506146e0565b838801955050505b50505092915050565b600061471c8284614691565b915081905092915050565b7f4e6f6e626c6f636b696e6752656365697665723a20696e76616c696420736f7560008201527f7263652073656e64696e6720636f6e7472616374000000000000000000000000602082015250565b6000614783603483613d88565b915061478e82614727565b604082019050919050565b600060208201905081810360008301526147b281614776565b9050919050565b6147c281613a63565b82525050565b6147d181613be3565b82525050565b60006080820190506147ec60008301876147b9565b81810360208301526147fe8186614269565b905061480d60408301856147c8565b818103606083015261481f8184614269565b905095945050505050565b60006148358261424d565b61483f8185614671565b935061484f818560208601613d99565b80840191505092915050565b6000614867828461482a565b915081905092915050565b7f4f776e61626c653a2063616c6c6572206973206e6f7420746865206f776e6572600082015250565b60006148a8602083613d88565b91506148b382614872565b602082019050919050565b600060208201905081810360008301526148d78161489b565b9050919050565b60006020820190506148f360008301846147b9565b92915050565b7f4552433732313a20617070726f76656420717565727920666f72206e6f6e657860008201527f697374656e7420746f6b656e0000000000000000000000000000000000000000602082015250565b6000614955602c83613d88565b9150614960826148f9565b604082019050919050565b6000602082019050818103600083015261498481614948565b9050919050565b7f4552433732313a20617070726f76616c20746f2063757272656e74206f776e6560008201527f7200000000000000000000000000000000000000000000000000000000000000602082015250565b60006149e7602183613d88565b91506149f28261498b565b604082019050919050565b60006020820190508181036000830152614a16816149da565b9050919050565b7f4552433732313a20617070726f76652063616c6c6572206973206e6f74206f7760008201527f6e6572206e6f7220617070726f76656420666f7220616c6c0000000000000000602082015250565b6000614a79603883613d88565b9150614a8482614a1d565b604082019050919050565b60006020820190508181036000830152614aa881614a6c565b9050919050565b7f4e6f6e626c6f636b696e6752656365697665723a2063616c6c6572206d75737460008201527f206265204272696467652e000000000000000000000000000000000000000000602082015250565b6000614b0b602b83613d88565b9150614b1682614aaf565b604082019050919050565b60006020820190508181036000830152614b3a81614afe565b9050919050565b7f4552433732313a207472616e736665722063616c6c6572206973206e6f74206f60008201527f776e6572206e6f7220617070726f766564000000000000000000000000000000602082015250565b6000614b9d603183613d88565b9150614ba882614b41565b604082019050919050565b60006020820190508181036000830152614bcc81614b90565b9050919050565b7f455243373231456e756d657261626c653a206f776e657220696e646578206f7560008201527f74206f6620626f756e6473000000000000000000000000000000000000000000602082015250565b6000614c2f602b83613d88565b9150614c3a82614bd3565b604082019050919050565b60006020820190508181036000830152614c5e81614c22565b9050919050565b6000614c718385614258565b9350614c7e838584613b64565b614c8783613aa7565b840190509392505050565b6000604082019050614ca760008301866147b9565b8181036020830152614cba818486614c65565b9050949350505050565b7f455243373231456e756d657261626c653a20676c6f62616c20696e646578206f60008201527f7574206f6620626f756e64730000000000000000000000000000000000000000602082015250565b6000614d20602c83613d88565b9150614d2b82614cc4565b604082019050919050565b60006020820190508181036000830152614d4f81614d13565b9050919050565b7f4e487b7100000000000000000000000000000000000000000000000000000000600052603260045260246000fd5b7f4552433732313a206f776e657220717565727920666f72206e6f6e657869737460008201527f656e7420746f6b656e0000000000000000000000000000000000000000000000602082015250565b6000614de1602983613d88565b9150614dec82614d85565b604082019050919050565b60006020820190508181036000830152614e1081614dd4565b9050919050565b7f4e487b7100000000000000000000000000000000000000000000000000000000600052601160045260246000fd5b6000614e5182613e54565b9150614e5c83613e54565b9250827fffffffffffffffffffffffffffffffffffffffffffffffffffffffffffffffff03821115614e9157614e90614e17565b5b828201905092915050565b6000614ea782613e54565b91507fffffffffffffffffffffffffffffffffffffffffffffffffffffffffffffffff821415614eda57614ed9614e17565b5b600182019050919050565b7f4552433732313a2062616c616e636520717565727920666f7220746865207a6560008201527f726f206164647265737300000000000000000000000000000000000000000000602082015250565b6000614f41602a83613d88565b9150614f4c82614ee5565b604082019050919050565b60006020820190508181036000830152614f7081614f34565b9050919050565b7f4e4f545f4c495645000000000000000000000000000000000000000000000000600082015250565b6000614fad600883613d88565b9150614fb882614f77565b602082019050919050565b60006020820190508181036000830152614fdc81614fa0565b9050919050565b7f4f4e4c595f325f5045525f57414c4c4554000000000000000000000000000000600082015250565b6000615019601183613d88565b915061502482614fe3565b602082019050919050565b600060208201905081810360008301526150488161500c565b9050919050565b7f4d41585f535550504c595f464f525f434841494e000000000000000000000000600082015250565b6000615085601483613d88565b91506150908261504f565b602082019050919050565b600060208201905081810360008301526150b481615078565b9050919050565b60006040820190506150d06000830185613ee9565b6150dd6020830184613f7f565b9392505050565b60008160f01b9050919050565b60006150fc826150e4565b9050919050565b61511461510f82613a63565b6150f1565b82525050565b6000819050919050565b61513561513082613e54565b61511a565b82525050565b60006151478285615103565b6002820191506151578284615124565b6020820191508190509392505050565b600060a08201905061517c60008301886147b9565b6151896020830187613ee9565b818103604083015261519b8186614269565b90506151aa6060830185613d53565b81810360808301526151bc8184614269565b90509695505050505050565b6000815190506151d781613e5e565b92915050565b600080604083850312156151f4576151f3613a59565b5b6000615202858286016151c8565b9250506020615213858286016151c8565b9150509250929050565b7f4552433732314d657461646174613a2055524920717565727920666f72206e6f60008201527f6e6578697374656e7420746f6b656e0000000000000000000000000000000000602082015250565b6000615279602f83613d88565b91506152848261521d565b604082019050919050565b600060208201905081810360008301526152a88161526c565b9050919050565b600081905092915050565b60006152c582613d7d565b6152cf81856152af565b93506152df818560208601613d99565b80840191505092915050565b7f2e6a736f6e000000000000000000000000000000000000000000000000000000600082015250565b60006153216005836152af565b915061532c826152eb565b600582019050919050565b600061534382856152ba565b915061534f82846152ba565b915061535a82615314565b91508190509392505050565b600060808201905061537b60008301886147b9565b61538860208301876147b9565b6153956040830186613f7f565b81810360608301526153a8818486614c65565b90509695505050505050565b7f4e6f6e626c6f636b696e6752656365697665723a206e6f2073746f726564206d60008201527f6573736167650000000000000000000000000000000000000000000000000000602082015250565b6000615410602683613d88565b915061541b826153b4565b604082019050919050565b6000602082019050818103600083015261543f81615403565b9050919050565b60006154528385614671565b935061545f838584613b64565b82840190509392505050565b6000615478828486615446565b91508190509392505050565b7f4c617965725a65726f3a20696e76616c6964207061796c6f6164000000000000600082015250565b60006154ba601a83613d88565b91506154c582615484565b602082019050919050565b600060208201905081810360008301526154e9816154ad565b9050919050565b600060808201905061550560008301886147b9565b81810360208301526155178187614269565b905061552660408301866147c8565b8181036060830152615539818486614c65565b90509695505050505050565b7f546865207472757374656420736f75726365206164647265737320686173206160008201527f6c7265616479206265656e2073657420666f722074686520636861696e496421602082015250565b60006155a1604083613d88565b91506155ac82615545565b604082019050919050565b600060208201905081810360008301526155d081615594565b9050919050565b7f4d6573736167652073656e646572206d757374206f776e20746865204e46542e600082015250565b600061560d602083613d88565b9150615618826155d7565b602082019050919050565b6000602082019050818103600083015261563c81615600565b9050919050565b7f5468697320636861696e206973206e6f742061207472757374656420736f757260008201527f636520736f757263652e00000000000000000000000000000000000000000000602082015250565b600061569f602a83613d88565b91506156aa82615643565b604082019050919050565b600060208201905081810360008301526156ce81615692565b9050919050565b7f4e6f7420656e6f7567682067617320746f20636f7665722063726f737320636860008201527f61696e207472616e736665722e00000000000000000000000000000000000000602082015250565b6000615731602d83613d88565b915061573c826156d5565b604082019050919050565b6000602082019050818103600083015261576081615724565b9050919050565b600081546157748161463f565b61577e8186614258565b9450600182166000811461579957600181146157ab576157de565b60ff19831686526020860193506157de565b6157b48561467c565b60005b838110156157d6578154818901526001820191506020810190506157b7565b808801955050505b50505092915050565b60006157f282613eb7565b9050919050565b615802816157e7565b82525050565b600060c08201905061581d60008301896147b9565b818103602083015261582f8188615767565b905081810360408301526158438187614269565b905061585260608301866157f9565b61585f6080830185613ee9565b81810360a08301526158718184614269565b9050979650505050505050565b7f4f776e61626c653a206e6577206f776e657220697320746865207a65726f206160008201527f6464726573730000000000000000000000000000000000000000000000000000602082015250565b60006158da602683613d88565b91506158e58261587e565b604082019050919050565b60006020820190508181036000830152615909816158cd565b9050919050565b615919816157e7565b811461592457600080fd5b50565b60008151905061593681615910565b92915050565b6000806040838503121561595357615952613a59565b5b600061596185828601615927565b9250506020615972858286016151c8565b9150509250929050565b7f4552433732313a206f70657261746f7220717565727920666f72206e6f6e657860008201527f697374656e7420746f6b656e0000000000000000000000000000000000000000602082015250565b60006159d8602c83613d88565b91506159e38261597c565b604082019050919050565b60006020820190508181036000830152615a07816159cb565b9050919050565b7f4552433732313a207472616e736665722066726f6d20696e636f72726563742060008201527f6f776e6572000000000000000000000000000000000000000000000000000000602082015250565b6000615a6a602583613d88565b9150615a7582615a0e565b604082019050919050565b60006020820190508181036000830152615a9981615a5d565b9050919050565b7f4552433732313a207472616e7366657220746f20746865207a65726f2061646460008201527f7265737300000000000000000000000000000000000000000000000000000000602082015250565b6000615afc602483613d88565b9150615b0782615aa0565b604082019050919050565b60006020820190508181036000830152615b2b81615aef565b9050919050565b6000615b3d82613e54565b9150615b4883613e54565b925082821015615b5b57615b5a614e17565b5b828203905092915050565b7f4552433732313a20617070726f766520746f2063616c6c657200000000000000600082015250565b6000615b9c601983613d88565b9150615ba782615b66565b602082019050919050565b60006020820190508181036000830152615bcb81615b8f565b9050919050565b7f4552433732313a207472616e7366657220746f206e6f6e20455243373231526560008201527f63656976657220696d706c656d656e7465720000000000000000000000000000602082015250565b6000615c2e603283613d88565b9150615c3982615bd2565b604082019050919050565b60006020820190508181036000830152615c5d81615c21565b9050919050565b7f4e487b7100000000000000000000000000000000000000000000000000000000600052601260045260246000fd5b6000615c9e82613e54565b9150615ca983613e54565b925082615cb957615cb8615c64565b5b828204905092915050565b6000615ccf82613e54565b9150615cda83613e54565b925082615cea57615ce9615c64565b5b828206905092915050565b6000608082019050615d0a6000830187613ee9565b615d176020830186613ee9565b615d246040830185613f7f565b8181036060830152615d368184614269565b905095945050505050565b600081519050615d5081613cee565b92915050565b600060208284031215615d6c57615d6b613a59565b5b6000615d7a84828501615d41565b91505092915050565b7f4e487b7100000000000000000000000000000000000000000000000000000000600052603160045260246000fd5b7f4552433732313a206d696e7420746f20746865207a65726f2061646472657373600082015250565b6000615de8602083613d88565b9150615df382615db2565b602082019050919050565b60006020820190508181036000830152615e1781615ddb565b9050919050565b7f4552433732313a20746f6b656e20616c7265616479206d696e74656400000000600082015250565b6000615e54601c83613d88565b9150615e5f82615e1e565b602082019050919050565b60006020820190508181036000830152615e8381615e47565b905091905056fea26469706673582212203e6453b7ac6cdc341d022aeb9005df843e7183e29625a6c077afbf55316b87f864736f6c63430008090033",
    "linkReferences": {},
    "deployedLinkReferences": {}
}